:100000000C9464000C948C000C948C000C944205AD
:100010000C9442050C9442050C948C000C948C00BA
:100020000C948C000C948C000C948C000C94CE02DC
:100030000C948C000C948C000C948C000C948C0010
:100040000C94D3060C948C000C9480090C94B20987
:100050000C948C000C948C000C948C000C948C00F0
:100060000C948C000C948C0000000008000201002D
:100070000003040700000000000000000102040863
:100080001020408001020408102001020408102002
:10009000040404040404040402020202020203032E
:1000A00003030303000000002300260029000000D2
:1000B0000000250028002B0000000000240027007D
:1000C0002A004F02E2096A0211241FBECFEFD8E0D6
:1000D000DEBFCDBF11E0A0E0B1E0E0E5FEE102C08F
:1000E00005900D92AA37B107D9F722E0AAE7B1E04F
:1000F00001C01D92AD3BB207E1F710E0C6ECD0E0C5
:1001000004C02297FE010E94A30CC23CD107C9F78C
:100110000E94260A0C941B0F0C940000BC0185EA77
:1001200091E00C942A04BC0182EA91E00C942A0428
:10013000BC018CE991E00C942A046DE071E08BE144
:1001400092E00E94B00A68EE73E085EA91E00E94B6
:100150002A046CED75E082EA91E00E942A046CEDBD
:1001600075E08FE991E00E942A046CED75E08CE95E
:1001700091E00E942A0468EE73E089E991E00E9410
:100180002A0460EA7FE080E090E00E94400768EE89
:1001900073E082EA91E00E942A0468EE73E080E056
:1001A00090E00E9440076CED75E082EA91E00E94C9
:1001B0002A0469E171E08BE192E00C94B00A682FA7
:1001C00080910B010C94050881E090E00E94DF0013
:1001D00064E271E08BE192E00E94B00A6CED75E0A0
:1001E0008FE991E00E942A046CED75E08CE991E0C2
:1001F0000E942A0460ED77E085EA91E00E942A04DB
:100200006CED75E082EA91E00E942A0460ED77E0EF
:1002100080E090E00E9440076CED75E08FE991E08E
:100220000E942A046CED75E08CE991E00E942A049A
:1002300068EE73E085EA91E00E942A046CED75E0B7
:1002400082EA91E00E942A0462E371E08BE192E08D
:100250000E94B00A64EF71E080E090E00E944007E5
:1002600060E171E08BE192E00E94B00A68EE73E019
:1002700085EA91E00E942A046CED75E082EA91E043
:100280000E942A046CED75E08FE991E00E942A0437
:100290006CED75E08CE991E00E942A0468EE73E051
:1002A00089E991E00E942A0460EA7FE080E090E022
:1002B0000E94400760ED77E082EA91E00E942A0404
:1002C00068EE73E080E090E00E9440076CED75E01E
:1002D00082EA91E00E942A046CE171E08BE192E0F5
:1002E0000C94B00ACF92DF92EF92FF920F931F937C
:1002F000CF93DF938C01662319F084E690E002C06F
:1003000088EC90E0C0E0D0E06C01EE24D7FCE094F3
:10031000FE2CC017D10794F481E090E00E94DF002A
:10032000C701B6010E94400780E090E00E94DF0014
:10033000C701B6010E9440072196EBCFDF91CF9114
:100340001F910F91FF90EF90DF90CF90089565E09F
:1003500070E082EA91E00E94240466E070E08FE998
:1003600091E00E94240467E070E089E991E00E9436
:10037000240469E070E085EA91E00E9424046CE0C6
:1003800070E08CE991E00E94240461E080910B010F
:100390000E94CC0726E040E855E260E070E08BE187
:1003A00092E00E941E0940E855E260E070E08AE7B2
:1003B00091E00E94450661E082E090E00E947201B7
:1003C0006DE371E08BE192E00C94B00AFF920F9321
:1003D0001F93CF93DF9300D000D000D0CDB7DEB70E
:1003E0008C0160E070E00E94C90BFC01F080F80114
:1003F0002481358141E050E0B801CE0101960E9490
:10040000DB0BCE0101960E94200C2AE0269F800182
:10041000279F100D1124CE0101960E94C20AF0E51B
:10042000FF1671F1FF158CF081E4F816C1F0E4E4D9
:10043000FE1229C060E084E090E00E9472010E94F8
:100440009D0061E084E090E014C0F4E5FF16A1F0A7
:1004500089E5F81218C0C8010E94930014C060E03A
:1004600083E090E00E9472010E94E40061E083E07A
:1004700090E00E94720107C0C8010E948E0003C074
:10048000C8010E94980026960FB6F894DEBF0FBEF2
:10049000CDBFDF91CF911F910F91FF90089585EA15
:1004A00091E00E948A0382EA91E00E948A038FE928
:1004B00091E00E948A038CE991E00E948A0389E915
:1004C00091E00E948A0320E04BE06AE08AE791E035
:1004D0000C9415068AE791E00C94BC05CF93DF934A
:1004E000CDB7DEB72C970FB6F894DEBF0FBECDBFE9
:1004F0008AE791E00E94EB04181619060CF045C03B
:1005000063E271E0CE0107960E94300B8AE791E02A
:100510000E94EB04892BA9F08AE791E00E945D0418
:10052000682FCE0101960E947E0BBE016F5F7F4F48
:10053000CE0107960E94C20BCE0101960E94C20A0C
:10054000E5CFBE01695F7F4FCE0101960E945D0B32
:10055000CE0101960E94E601CE0101960E94C20AD8
:1005600080910A01882369F066E571E08BE192E0F1
:100570000E94810ABE01695F7F4F8BE192E00E9479
:100580009E0ACE0107960E94C20A2C960FB6F894D6
:10059000DEBF0FBECDBFDF91CF9108951F920F92A6
:1005A0000FB60F9211242F933F934F935F936F9346
:1005B0007F938F939F93AF93BF93EF93FF9380911C
:1005C000A90187FF05C010928500109284001AC00F
:1005D0002091A901332727FD30958091A80190E053
:1005E000281739077CF48091A901992787FD9095F8
:1005F000FC01EE0FFF1FE80FF91FE655FE4F80814B
:1006000086FD15C08091A9018F5F8093A90120917B
:10061000A901332727FD30958091A80190E0281784
:100620003907BCF48091A9018C305CF112C0809133
:10063000A901992787FD9095FC01EE0FFF1FE80F98
:10064000F91FE655FE4F808160E08F730E94050818
:10065000D9CF8091840090918500049680349C4984
:1006600018F480E49CE905C0809184009091850095
:10067000049690938900809388008FEF8093A9015E
:1006800038C020918400309185008091A90199277C
:1006900087FD9095FC01EE0FFF1FE80FF91FE6554F
:1006A000FE4F81819281820F931F909389008093E6
:1006B00088008091A901992787FD9095FC01EE0F94
:1006C000FF1FE80FF91FE655FE4F808186FF11C01E
:1006D0008091A901992787FD9095FC01EE0FFF1FDE
:1006E000E80FF91FE655FE4F808161E08F730E948D
:1006F0000508FF91EF91BF91AF919F918F917F91ED
:100700006F915F914F913F912F910F900FBE0F907E
:100710001F9018952091A8012C30A0F431E0320FE1
:100720003093A801FC012083822F90E0FC01EE0FA2
:10073000FF1FE80FF91FE655FE4F88EB9BE0928301
:10074000818308952FEFFC0120830895DF92EF92BB
:10075000FF920F931F93CF93DF93EC01D62E7A0174
:10076000890188818C3008F066C061E08D2D0E947F
:10077000CC078881A82FB0E0FD01EE0FFF1FEA0F24
:10078000FB1FE655FE4F2D2D2F739081907C922BF1
:10079000908360E272E06E197F0977FF02C06D5F9F
:1007A0007F4F7595679575956795698340E659E024
:1007B000401B510B57FF02C04D5F5F4F559547954A
:1007C000559547954A836CE00E942C0C9CE0899FCC
:1007D000B001112420E030E0A901460F571FFA01B3
:1007E000EE0FFF1FE40FF51FE655FE4F908196FDBB
:1007F00016C02F5F3F4F2C30310571F781110FC0AC
:100800001092800082E08093810010928500109207
:100810008400B19A80916F00826080936F0088811C
:1008200090E0FC01EE0FFF1FE80FF91FE655FE4FA9
:100830008081806480838881DF91CF911F910F91A7
:10084000FF90EF90DF90089520E639E040E252E01B
:100850000C94A603FC0180818C3070F5918128E80E
:1008600030E0291B310997FD3395220F331F220FEA
:10087000331F621773077CF0928128E532E0291B51
:10088000310997FD3395220F331F220F331F621753
:1008900073070CF49B0122503109220F331F4FB70D
:1008A000F89490E0FC01EE0FFF1FE80FF91FE655EA
:1008B000FE4F328321834FBF089520911002309163
:1008C000110228173907B9F49091CE018091CF0118
:1008D000981789F0E091CE01F0E0E053FE4F80815F
:1008E0002091CE0130E02F5F3F4F2F7333272093AD
:1008F000CE0190E008958FEF9FEF08951F93CF935F
:10090000DF93DC015C968D919C915D97009749F493
:1009100081E090E013969C938E93129780E090E094
:100920003BC05196ED91FC91529750962C91509767
:10093000322F30951FB75E964C915E9741FB77271B
:1009400070F941FD6095F8944081772311F0422BB6
:1009500001C043234083EC012197F1F748E0508127
:1009600060FF02C0522B01C053235083EC0121973A
:10097000F1F76695415099F78081772311F0832331
:1009800001C0822B80831FBF5C968D919C915D97E7
:100990000197F1F781E090E0DF91CF911F910895E9
:1009A000089520911002309111022817390781F41F
:1009B0009091CE018091CF01981751F0E091CE0136
:1009C000F0E0E053FE4F8081992787FD90950895D0
:1009D0008FEF9FEF08952091100230911102281798
:1009E000390771F48091CF012091CE0190E0805CB5
:1009F0009F4F821B910960E470E00E94380C0895BB
:100A000080E090E00895E0911002F0911102E81763
:100A1000F90769F4A389B4899C9185898095892314
:100A20008C93109211021092100281E0089580E0E0
:100A30000895CF93DF93EC018A8D9B8D892BF1F084
:100A400080911002909111028C179D07B9F00097C8
:100A500011F00E9403058E8D8E7F8E8F1092CF0134
:100A60001092CE01D0931102C0931002EB89FC8941
:100A700080819D89892B808381E001C080E0DF91A6
:100A8000CF9108951F920F920FB60F9211242F93BA
:100A90003F934F935F936F937F938F939F93AF9306
:100AA000BF93EF93FF93E0911002F0911102309702
:100AB00009F451C0868DA685B785958581FF04C050
:100AC0008C91892329F447C08C91892309F043C074
:100AD000A389B4899C918589809589238C93868983
:100AE00097890197F1F7208D318DA685B78575859A
:100AF00058E040E0C9010197F1F7842F90E0959507
:100B00008795482F6C91672309F04068515091F701
:100B1000868D81FD40958091CF0190E001968F7385
:100B200099272091CE01281749F0A091CF01B0E07C
:100B3000A053BE4F4C938093CF0103C0868D81603C
:100B4000868F828D938D0197F1F7A389B4898C915B
:100B50009589892B8C93FF91EF91BF91AF919F91D4
:100B60008F917F916F915F914F913F912F910F9056
:100B70000FBE0F901F9018952DE531E0FC013183D9
:100B800020830C9403051F93CF93DF93EC01162F62
:100B90006E8D6695617081E06827812F0E9405083F
:100BA00061E0812F0E94CC07812F90E0FC01E45886
:100BB000FF4FE491E88BFC01E057FF4FE491F0E038
:100BC000EE0FFF1FE255FF4F859194919A8B898B11
:100BD000DF91CF911F9108951F93CF93DF93EC0185
:100BE000162F60E0812F0E94CC078E8D81FD04C0FE
:100BF00061E0812F0E9405081C87812F90E0FC0195
:100C0000E458FF4FE491ED87FC01E057FF4FE4917A
:100C1000F0E0EE0FFF1FEC55FF4F859194919F87F9
:100C20008E87DF91CF911F910895FF920F931F93AD
:100C3000CF93DF93EC01F62E522F1B821A8208EE1F
:100C400013E020E030E00C831D832E833F838DE58D
:100C500091E0998388831F8A1E8A198E188E1B8EB5
:100C60001A8E1D8E1C8E8E8D8E7F50FB81F98E8F7D
:100C7000642FCE010E94C3056F2DCE01DF91CF916D
:100C80001F910F91FF900C94EC05CF93DF93EC0133
:100C90009A01AB011B8E1A8E198E188E1F8A1E8A1E
:100CA00060E079E08DE390E00E946E0CC901243091
:100CB000310520F0B9016350710902C061E070E0B4
:100CC0007D8F6C8FEC85E63108F068C0B9017695B0
:100CD00067956431710518F06351710902C061E0D4
:100CE00070E07F8B6E8B069718F0C901059702C0E4
:100CF00081E090E0998F888FC901880F991F820F3A
:100D0000931F96958795969587958D30910510F050
:100D10000C9702C081E090E09B8F8A8F2091680041
:100D2000E83050F091E0EE3008F490E081E001C04E
:100D3000880F9A95EAF701C084E0822B80936800BF
:100D40002C85283038F02E3040F0263148F48CE6DF
:100D500090E008C08DE690E005C08BE690E002C010
:100D600080E090E09C8B8B8B283030F481E001C0D8
:100D7000880F2A95EAF70DC0822F90E02E3010F4EC
:100D8000089701C00E9791E001C0990F8A95EAF784
:100D9000892F8D8B8C8D9D8D0197F1F7CE01DF9181
:100DA000CF910C9419051F920F920FB60F92112438
:100DB0002F933F938F939F93AF93BF938091130291
:100DC00090911402A0911502B09116023091120276
:100DD00023E0230F2D3720F40196A11DB11D05C07E
:100DE00026E8230F0296A11DB11D209312028093C5
:100DF000130290931402A0931502B09316028091EF
:100E0000170290911802A0911902B0911A0201964E
:100E1000A11DB11D8093170290931802A09319028F
:100E2000B0931A02BF91AF919F918F913F912F91F3
:100E30000F900FBE0F901F9018953FB7F8948091B8
:100E4000170290911802A0911902B0911A0226B5CA
:100E5000A89B05C02F3F19F00196A11DB11D3FBFF2
:100E60006627782F892F9A2F620F711D811D911D82
:100E700042E0660F771F881F991F4A95D1F70895A2
:100E8000CF92DF92EF92FF92CF93DF936B017C01C1
:100E90000E941D07EB01C114D104E104F10489F0A3
:100EA0000E942B0C0E941D076C1B7D0B683E73403B
:100EB00090F381E0C81AD108E108F108C851DC4F6D
:100EC000EACFDF91CF91FF90EF90DF90CF90089520
:100ED000789484B5826084BD84B5816084BD85B515
:100EE000826085BD85B5816085BDEEE6F0E08081DC
:100EF00081608083E1E8F0E01082808182608083FD
:100F0000808181608083E0E8F0E08081816080837F
:100F1000E1EBF0E0808184608083E0EBF0E08081B1
:100F200081608083EAE7F0E0808184608083808153
:100F300082608083808181608083808180688083FB
:100F40001092C1000895833081F028F4813099F027
:100F50008230A1F008958730A9F08830B9F084304C
:100F6000D1F4809180008F7D03C0809180008F77C5
:100F700080938000089584B58F7702C084B58F7DFB
:100F800084BD08958091B0008F7703C08091B00038
:100F90008F7D8093B0000895CF93DF9390E0FC01A4
:100FA000E458FF4F2491FC01E057FF4F84918823C0
:100FB00049F190E0880F991FFC01E854FF4FA5917B
:100FC000B49182559F4FFC01C591D4919FB7611197
:100FD00008C0F8948C91209582238C938881822379
:100FE0000AC0623051F4F8948C91322F30958323EB
:100FF0008C938881822B888304C0F8948C91822BF7
:101000008C939FBFDF91CF9108950F931F93CF9340
:10101000DF931F92CDB7DEB7282F30E0F901E859F2
:10102000FF4F8491F901E458FF4F1491F901E05703
:10103000FF4F04910023C9F0882321F069830E94A7
:10104000A3076981E02FF0E0EE0FFF1FE255FF4F8D
:10105000A591B4919FB7F8948C91611103C010953C
:10106000812301C0812B8C939FBF0F90DF91CF9183
:101070001F910F910895FC01818D228D90E0805C7D
:101080009F4F821B91098F7399270895FC01918DC1
:10109000828D981731F0828DE80FF11D858D90E0DB
:1010A00008958FEF9FEF0895FC01918D828D981721
:1010B00061F0828DDF01A80FB11D5D968C91928D3C
:1010C0009F5F9F73928F90E008958FEF9FEF089539
:1010D00088ED99E0892B49F080E090E0892B29F098
:1010E0000E94D80981110C9400000895FC01848DA0
:1010F000DF01A80FB11DA35ABF4F2C91848D90E042
:1011000001968F739927848FA689B7892C93A0891C
:10111000B1898C9180648C93938D848D981306C0D3
:101120000288F389E02D80818F7D80830895CF939D
:10113000DF93EC01888D8823C9F0EA89FB898081DF
:1011400085FD05C0A889B9898C9186FD0FC00FB6B1
:1011500007FCF5CF808185FFF2CFA889B9898C91F2
:1011600085FFEDCFCE010E947608E7CFDF91CF91CA
:101170000895CF92DF92FF920F931F93CF93DF9347
:101180001F92CDB7DEB76C01DC015B969C915B973B
:101190005C968C915C97981307C05096ED91FC91EA
:1011A0005197808185FD32C0F601038D10E00F5FFD
:1011B0001F4F0F731127F02EF601848DF81211C006
:1011C0000FB607FCF9CFD6015096ED91FC915197DF
:1011D000808185FFF1CFC60169830E94760869810D
:1011E000EBCF838DE80FF11DE35AFF4F6083D601EB
:1011F0005B960C935B975296ED91FC91539780818F
:101200008062808381E058968C930DC0D6015696FB
:10121000ED91FC91579760835096ED91FC91519719
:1012200080818064808381E090E00F90DF91CF9196
:101230001F910F91FF90DF90CF900895BF92CF92B2
:10124000DF92EF92FF92CF93DF93EC016A017B0173
:10125000B22EE889F98982E08083411581EE580732
:1012600061057105A1F060E079E08DE390E0A701F0
:1012700096010E944C0C21503109410951095695A3
:10128000479537952795211580E1380798F0E8892B
:10129000F989108260E874E88EE190E0A701960178
:1012A0000E944C0C2150310941095109569547952E
:1012B00037952795EC85FD853083EE85FF85208366
:1012C000188EEC89FD89B082EA89FB898081806172
:1012D0008083EA89FB89808188608083EA89FB8931
:1012E000808180688083EA89FB8980818F7D80830B
:1012F000DF91CF91FF90EF90DF90CF90BF90089556
:101300001F920F920FB60F9211242F938F939F93DA
:10131000EF93FF93E0912B02F0912C028081E091FA
:101320003102F091320282FD12C09081809134022C
:101330008F5F8F7320913502821751F0E091340254
:10134000F0E0E55EFD4F958F8093340201C080810F
:10135000FF91EF919F918F912F910F900FBE0F9062
:101360001F9018951F920F920FB60F9211242F9372
:101370003F934F935F936F937F938F939F93AF931D
:10138000BF93EF93FF938BE192E00E947608FF9169
:10139000EF91BF91AF919F918F917F916F915F91ED
:1013A0004F913F912F910F900FBE0F901F90189566
:1013B0008BE192E00E943B0821E0892B09F420E0B8
:1013C000822F089510921E0210921D0288EE93E063
:1013D000A0E0B0E080931F0290932002A09321022E
:1013E000B09322028DE691E090931C0280931B0241
:1013F00085EC90E0909328028093270284EC90E0A3
:1014000090932A028093290280EC90E090932C0222
:1014100080932B0281EC90E090932E0280932D021A
:1014200082EC90E09093300280932F0286EC90E063
:10143000909332028093310210923402109235025E
:101440001092360210923702089508950E9468079C
:101450000E94250A0E94A701C8E6D8E00E946E02F9
:101460002097E1F30E946808F9CFCF92DF92EF92C4
:10147000FF920F931F93CF93DF936C017A01EB01DF
:10148000E60EF71E00E010E0CE15DF0561F0699171
:10149000D601ED91FC910190F081E02DC6010995F6
:1014A000080F191FF1CFC801DF91CF911F910F9144
:1014B000FF90EF90DF90CF9008956115710581F056
:1014C000DB010D900020E9F7AD0141505109461BA9
:1014D000570BDC01ED91FC910280F381E02D099422
:1014E00080E090E00895DC01ED91FC91DB01149621
:1014F0004D915C9115976D917C910280F381E02D67
:1015000009940C945D0ADC01ED91FC910190F0814D
:10151000E02D09940F931F93CF93DF93EC016DE0BF
:101520000E94830A8C016AE0CE010E94830A800F28
:10153000911FDF91CF911F910F9108950F931F93EA
:10154000CF93DF93EC010E94730A8C01CE010E94BD
:101550008A0A800F911FDF91CF911F910F910895FB
:101560000F931F93CF93DF93EC010E945D0A8C01D0
:10157000CE010E948A0A800F911FDF91CF911F91A7
:101580000F910895FC01808191810C943F0DCF93C0
:10159000DF93EC0188819981009711F00E943F0D43
:1015A000198218821D821C821B821A82DF91CF91C0
:1015B00008950F931F93CF93DF93EC018B016F5F1F
:1015C0007F4F888199810E94CE0D009731F09983D9
:1015D00088831B830A8381E001C080E0DF91CF9183
:1015E0001F910F910895CF93DF93EC01888199812A
:1015F000892B29F08A819B818617970760F4CE0199
:101600000E94D90A882341F08C819D81892B19F48D
:10161000E881F981108281E0DF91CF910895EF9206
:10162000FF920F931F93CF93DF93EC017B018A010D
:10163000BA010E94F30A811104C0CE010E94C70AB8
:1016400007C01D830C83B701888199810E94C80E51
:10165000CE01DF91CF911F910F91FF90EF900895F0
:10166000FC0111821082138212821582148261158C
:10167000710559F0FB0101900020E9F7AF014150DD
:101680005109461B570B0C940F0B0895CF93DF9312
:10169000EC01FB018617970761F06081718161158C
:1016A000710529F0448155810E940F0B02C00E94F0
:1016B000C70ACE01DF91CF910895FC0111821082FB
:1016C00013821282158214820C94460BCF93DF93FF
:1016D000EC016115710561F0FB0101900020E9F753
:1016E000AF0141505109461B570B0E940F0B02C01E
:1016F0000E94C70ACE01DF91CF910895CF93DF9367
:1017000000D0CDB7DEB7FC011182108213821282A5
:101710001582148269831A82BE016F5F7F4F0E9417
:10172000660B0F900F90DF91CF910895EF92FF928B
:101730000F931F93CF93DF93EC017B010C811D81ED
:101740006115710511F480E016C04115510591F045
:10175000040F151FB8010E94F30A8823A1F3288102
:1017600039818C819D81B701820F931F0E94C80E21
:101770001D830C8381E0DF91CF911F910F91FF902A
:10178000EF900895FB0144815581608171810C9433
:10179000960BFC01848195816817790720F480817C
:1017A0009181009729F41092B80288EB92E0089595
:1017B000860F971F0895BF92CF92DF92EF92FF920C
:1017C0000F931F93CF93DF936C017B01EA01890193
:1017D0002417350720F48D2FE901042F182F63E219
:1017E00071E0C6010E94300BD70114968D919C9137
:1017F0001597C817D907C8F48017910708F48C010A
:10180000D701ED91FC911197E00FF11FB08010828C
:101810006D917C916C0F7D1FC6010E94660BD701F4
:10182000ED91FC91E00FF11FB082C601DF91CF91E5
:101830001F910F91FF90EF90DF90CF90BF90089590
:10184000FC0180819181009711F00C94980E60E06A
:1018500070E0CB0108950895991B79E004C0991FA9
:10186000961708F0961B881F7A95C9F780950895FA
:1018700097FB072E16F4009407D077FD09D00E943D
:101880008D0C07FC05D03EF4909581959F4F0895EF
:10189000709561957F4F0895A1E21A2EAA1BBB1B7C
:1018A000FD010DC0AA1FBB1FEE1FFF1FA217B3072C
:1018B000E407F50720F0A21BB30BE40BF50B661F42
:1018C000771F881F991F1A9469F760957095809506
:1018D00090959B01AC01BD01CF010895052E97FBAA
:1018E0001EF400940E94850C57FD07D00E944C0CFA
:1018F00007FC03D04EF40C94850C50954095309520
:1019000021953F4F4F4F5F4F08959095809570956B
:1019100061957F4F8F4F9F4F0895AA1BBB1B51E1CD
:1019200007C0AA1FBB1FA617B70710F0A61BB70B4F
:10193000881F991F5A95A9F780959095BC01CD01F4
:101940000895EE0FFF1F0590F491E02D0994CF93B9
:10195000DF938230910510F482E090E0E091BB02C9
:10196000F091BC0220E030E0A0E0B0E0309739F127
:101970004081518148175907B8F04817590771F449
:1019800082819381109729F013969C938E931297DE
:101990002CC09093BC028093BB0227C02115310557
:1019A00031F04217530718F0A901DB0101C0EF0124
:1019B0009A01BD01DF010280F381E02DD7CF21150F
:1019C0003105F9F0281B390B2430310580F48A8168
:1019D0009B816115710521F0FB019383828304C013
:1019E0009093BC028093BB02FE01329644C0FE017C
:1019F000E20FF31F81939193225031093983288399
:101A00003AC02091B9023091BA02232B41F42091BF
:101A10000201309103013093BA022093B902209160
:101A20000001309101012115310541F42DB73EB778
:101A30004091040150910501241B350BE091B9023E
:101A4000F091BA02E217F307A0F42E1B3F0B281700
:101A5000390778F0AC014E5F5F4F2417350748F027
:101A60004E0F5F1F5093BA024093B9028193919336
:101A700002C0E0E0F0E0CF01DF91CF910895CF9375
:101A8000DF93009709F487C0FC013297138212821A
:101A9000C091BB02D091BC02209781F4208131819A
:101AA000280F391F8091B9029091BA0282179307CB
:101AB00079F5F093BA02E093B9026DC0DE0120E03F
:101AC00030E0AE17BF0750F412964D915C9113971A
:101AD0009D014115510509F1DA01F3CFB383A283CA
:101AE00040815181840F951F8A179B0771F48D9156
:101AF0009C911197840F951F029691838083129673
:101B00008D919C911397938382832115310529F43C
:101B1000F093BC02E093BB023EC0D9011396FC9344
:101B2000EE9312974D915D91A40FB51FEA17FB0735
:101B300079F480819181840F951F0296D9011196C5
:101B40009C938E938281938113969C938E9312978C
:101B5000E0E0F0E08A819B81009719F0FE01EC0142
:101B6000F9CFCE01029628813981820F931F2091EF
:101B7000B9023091BA022817390769F4309729F46D
:101B80001092BC021092BB0202C013821282D09348
:101B9000BA02C093B902DF91CF910895A0E0B0E0FE
:101BA000E4EDFDE00C94E80EEC01CB01209719F474
:101BB0000E94A70CB8C0FE01E60FF71F9E0122503D
:101BC0003109E217F30708F4ACC0D9010D911C915B
:101BD000119706171707B8F00530110508F49FC0D4
:101BE000A801445051094617570708F498C00250FD
:101BF0001109061B170B019311936D937C93CF0171
:101C00000E943F0D8CC05B01A01AB10A4E01800EEC
:101C1000911EA091BB02B091BC02612C712C60E0BE
:101C200070E0109709F449C0A815B905C9F5ED9001
:101C3000FC901197670142E0C40ED11CCA14DB046A
:101C400078F147018A189B08640142E0C40ED11C58
:101C50001296BC9012971396AC91B5E0CB16D104B6
:101C600040F0B282A38391828082D9018D939C93AC
:101C700009C00E5F1F4F0E0D1F1DF9011183008358
:101C8000EB2DFA2F6115710531F0DB011396FC93F2
:101C9000EE93129744C0F093BC02E093BB023FC0A6
:101CA0006D917C9111976616770608F43B01BD0192
:101CB00012960D90BC91A02DB4CF6091B902709195
:101CC000BA0268157905E9F468167906D0F44091EE
:101CD0000001509101014115510541F44DB75EB726
:101CE0006091040170910501461B570BE417F5073D
:101CF000C0F4F093BA02E093B902F90191838083B2
:101D00000EC00E94A70C7C01009759F0A801BE01EB
:101D10000E94BF0ECE010E943F0DC70104C0CE013C
:101D200002C080E090E0CDB7DEB7EEE00C94040F87
:101D30001F93FC0199278827BC01E8941191103268
:101D4000E9F3193010F01E30C8F31B3251F01D3288
:101D500049F4689406C00E94CF0E610F711D811D69
:101D6000911D119110531A30B0F33EF49095809567
:101D7000709561957F4F8F4F9F4F1F910895FB0185
:101D8000DC0102C001900D9241505040D8F70895F7
:101D9000FB01DC0101900D920020E1F70895592F1D
:101DA000482F372F262F660F771F881F991F660F22
:101DB000771F881F991F620F731F841F951F660F5F
:101DC000771F881F991F08952F923F924F925F921D
:101DD0006F927F928F929F92AF92BF92CF92DF923B
:101DE000EF92FF920F931F93CF93DF93CDB7DEB7A0
:101DF000CA1BDB0B0FB6F894DEBF0FBECDBF099434
:101E00002A88398848885F846E847D848C849B848A
:101E1000AA84B984C884DF80EE80FD800C811B8198
:101E2000AA81B981CE0FD11D0FB6F894DEBF0FBEC7
:101E3000CDBFED01089510E0C6ECD0E004C0FE0176
:101E40000E94A30C2296C83CD107C9F7F894FFCF93
:101E50000000BD0280000100000001080044697319
:101E600041726D696E672E2E0044697341726D6513
:101E7000642E2E0043616C6962726174696E672E14
:101E80002E0043616C6962726174656400466C691E
:101E9000676874204D6F64756C6520496E6974695C
:101EA000616C697A65003E3E00000000007E0435EA
:101EB0000AEB045D04D104D00400000000B9083529
:0A1EC0000A3B085408460897080082
:00000001FF
