:100000000C9464000C948C000C948C000C943004C0
:100010000C9430040C9430040C948C000C948C00E0
:100020000C948C000C948C000C948C000C948C0020
:100030000C948C000C948C000C948C000C948C0010
:100040000C94C1050C948C000C94B4080C94E60834
:100050000C948C000C948C000C948C000C948C00F0
:100060000C948C000C948C0000000008000201002D
:100070000003040700000000000000000102040863
:100080001020408001020408102001020408102002
:10009000040404040404040402020202020203032E
:1000A00003030303000000002300260029000000D2
:1000B0000000250028002B0000000000240027007D
:1000C0002A0040031609470311241FBECFEFD8E0D2
:1000D000DEBFCDBF11E0A0E0B1E0E2E1F6E102C099
:1000E00005900D92A035B107D9F722E0A0E5B1E067
:1000F00001C01D92A538B207E1F710E0C6ECD0E0D0
:1001000004C02297FE010E94A20AC23CD107C9F78F
:100110000E945A090C94FC0A0C940000682F8091EC
:100120000C010C941007682F80910A010C941007A1
:1001300026E040E855E260E070E088EE91E00E9441
:10014000520840E855E260E070E08CE791E00E94E0
:10015000330560E0809110010E94D70660E0809135
:100160000E010E94D70661E080910C010E94D70623
:1001700061E080910A010E94D70681E090E00E9430
:100180008E0081E090E00E94930060ED77E080E0D7
:1001900090E00E942E0680E090E00E948E0080E0B9
:1001A00090E00C949300CF93DF93EC010097A1F0C3
:1001B000FC0101900020E9F7AF0141505109481BB3
:1001C000590BE0917C01F0917D010280F381E02DDB
:1001D000BC018CE791E00995BE0188EE91E00E9498
:1001E000C20981E090E00E9493006AE070E080E044
:1001F00090E0DF91CF910C942E060F931F93CF9335
:10020000DF9380910E010E9446078C0180911001BE
:100210000E944607EC010097C1F480915001909133
:100220005101019791F489E191E00E94D30081E0AE
:1002300090E00E948E0060E177E280E090E00E9412
:100240002E0680E090E00E948E0001151105C1F499
:100250008091520190915301019791F48DE191E0C9
:100260000E94D30081E090E00E948E0060E27EE474
:1002700080E090E00E942E0680E090E00E948E00D8
:100280001093530100935201D0935101C093500138
:10029000DF91CF911F910F910895AF92BF92CF92AE
:1002A000DF92EF92FF920F931F93CF93DF93CDB71F
:1002B000DEB727970FB6F894DEBF0FBECDBF809193
:1002C00014010E949106A0905401B0905501CC24D5
:1002D000B7FCC094DC2CBC01882777FD8095982F53
:1002E00040910401509105018A01222717FD2095B4
:1002F000322F3F932F931F930F93E12C14E0F12E95
:1003000000E010E020E030E0A9010E94D409209133
:100310007801309179010F900F900F900F90253058
:1003200031056CF4F901EE0FFF1FE259FE4F7183A6
:1003300060832F5F3F4F3093790120937801809144
:100340007801909179010597ECF1EEE6F1E080E01B
:1003500090E021913191820F931F21E0E837F2075D
:10036000C1F765E070E00E942C0ACB0120910601E4
:100370003091070162177307D9F0709307016093FA
:1003800006014AE0BE016B5F7F4F0E94C70A61E22F
:1003900071E0CE0101960E94C00ABE016B5F7F4FE3
:1003A000CE0101960E94B50ACE0101960E94D300AB
:1003B00010927901109278016AE070E080E090E09C
:1003C0000E942E0627960FB6F894DEBF0FBECDBF53
:1003D000DF91CF911F910F91FF90EF90DF90CF9021
:1003E000BF90AF900895AF92BF92CF92DF92EF92FD
:1003F000FF920F931F93CF93DF93CDB7DEB727976D
:100400000FB6F894DEBF0FBECDBF809112010E94DF
:100410009106A0900401B0900501CC24B7FCC094D3
:10042000DC2CBC01882777FD8095982F40915401E2
:10043000509155018A01222717FD2095322F3F93B5
:100440002F931F930F93E12C14E0F12E00E010E0A6
:1004500020E030E0A9010E94D40920916C01309184
:100460006D010F900F900F900F90253031056CF4B7
:10047000F901EE0FFF1FEE59FE4F718360832F5F6E
:100480003F4F30936D0120936C0180916C019091EE
:100490006D010597ECF1E2E6F1E080E090E021915A
:1004A0003191820F931F21E0EC36F207C1F765E02E
:1004B00070E00E942C0ACB012091080130910901C3
:1004C00062177307D9F070930901609308014AE03D
:1004D000BE016B5F7F4F0E94C70A63E271E0CE01ED
:1004E00001960E94C00ABE016B5F7F4FCE0101964C
:1004F0000E94B50ACE0101960E94D30010926D01B0
:1005000010926C016AE070E080E090E00E942E069C
:1005100027960FB6F894DEBF0FBECDBFDF91CF9107
:100520001F910F91FF90EF90DF90CF90BF90AF9011
:100530000895AF92BF92CF92DF92EF92FF920F9306
:100540001F93CF93DF93CDB7DEB727970FB6F894FD
:10055000DEBF0FBECDBF809116010E949106BC0187
:10056000882777FD8095982F1F921F921F9224E66F
:100570002F93B2EDAB2EB12CC12CD12CE12C14E079
:10058000F12E00E010E020E030E0A9010E94D40943
:1005900020916001309161010F900F900F900F90AA
:1005A000253031056CF4F901EE0FFF1FEA5AFE4FBA
:1005B000718360832F5F3F4F30936101209360010F
:1005C00080916001909161010597ECF1E6E5F1E021
:1005D00080E090E021913191820F931F21E0E0367D
:1005E000F207C1F765E070E00E942C0ACB01209170
:1005F0007A0130917B0162177307D9F070937B0108
:1006000060937A014AE0BE016B5F7F4F0E94C70A88
:1006100065E271E0CE0101960E94C00ABE016B5FE7
:100620007F4FCE0101960E94B50ACE0101960E942D
:10063000D30010926101109260016AE070E080E0E6
:1006400090E00E942E0627960FB6F894DEBF0FBEEC
:10065000CDBFDF91CF911F910F91FF90EF90DF9071
:10066000CF90BF90AF9008950E94FD000E944D0171
:100670000E94F3010E94990280E090E00C949300A4
:1006800020E04BE06AE08CE791E00C9403058CE7F6
:1006900091E00C94AA042091DD013091DE0128172D
:1006A0003907B9F490919B0180919C01981789F0CA
:1006B000E0919B01F0E0E356FE4F808120919B0189
:1006C00030E02F5F3F4F2F73332720939B0190E043
:1006D00008958FEF9FEF08951F93CF93DF93DC0171
:1006E0005C968D919C915D97009749F481E090E034
:1006F00013969C938E93129780E090E03BC05196A6
:10070000ED91FC91529750962C915097322F309545
:100710001FB75E964C915E9741FB772770F941FDBC
:100720006095F8944081772311F0422B01C0432358
:100730004083EC012197F1F748E0508160FF02C04F
:10074000522B01C053235083EC012197F1F766959A
:10075000415099F78081772311F0832301C0822BC8
:1007600080831FBF5C968D919C915D970197F1F7F7
:1007700081E090E0DF91CF911F910895089520913D
:10078000DD013091DE012817390781F490919B013A
:1007900080919C01981751F0E0919B01F0E0E356A5
:1007A000FE4F8081992787FD909508958FEF9FEFE9
:1007B00008952091DD013091DE012817390771F489
:1007C00080919C0120919B0190E0805C9F4F821B57
:1007D000910960E470E00E942C0A089580E090E0A6
:1007E0000895E091DD01F091DE01E817F90769F461
:1007F000A389B4899C918589809589238C931092D3
:10080000DE011092DD0181E0089580E00895CF932C
:10081000DF93EC018A8D9B8D892BF1F08091DD01B6
:100820009091DE018C179D07B9F0009711F00E949E
:10083000F1038E8D8E7F8E8F10929C0110929B0102
:10084000D093DE01C093DD01EB89FC8980819D8915
:10085000892B808381E001C080E0DF91CF910895F2
:100860001F920F920FB60F9211242F933F934F9325
:100870005F936F937F938F939F93AF93BF93EF9308
:10088000FF93E091DD01F091DE01309709F451C052
:10089000868DA685B785958581FF04C08C918923B7
:1008A00029F447C08C91892309F043C0A389B489F6
:1008B0009C918589809589238C9386899789019756
:1008C000F1F7208D318DA685B785758558E040E01C
:1008D000C9010197F1F7842F90E095958795482FEE
:1008E0006C91672309F04068515091F7868D81FD26
:1008F000409580919C0190E001968F7399272091FB
:100900009B01281749F0A0919C01B0E0A356BE4F6F
:100910004C9380939C0103C0868D8160868F828D6D
:10092000938D0197F1F7A389B4898C919589892BCF
:100930008C93FF91EF91BF91AF919F918F917F9198
:100940006F915F914F913F912F910F900FBE0F903C
:100950001F90189524E331E0FC01318320830C942F
:10096000F1031F93CF93DF93EC01162F6E8D6695E5
:10097000617081E06827812F0E94100761E0812F5C
:100980000E94D706812F90E0FC01E458FF4FE491CC
:10099000E88BFC01E057FF4FE491F0E0EE0FFF1F02
:1009A000E255FF4F859194919A8B898BDF91CF917E
:1009B0001F9108951F93CF93DF93EC01162F60E0F2
:1009C000812F0E94D7068E8D81FD04C061E0812FAA
:1009D0000E9410071C87812F90E0FC01E458FF4F14
:1009E000E491ED87FC01E057FF4FE491F0E0EE0F5A
:1009F000FF1FEC55FF4F859194919F878E87DF9164
:100A0000CF911F910895FF920F931F93CF93DF9380
:100A1000EC01F62E522F1B821A8208EE13E020E022
:100A200030E00C831D832E833F8384E391E0998320
:100A300088831F8A1E8A198E188E1B8E1A8E1D8E11
:100A40001C8E8E8D8E7F50FB81F98E8F642FCE0190
:100A50000E94B1046F2DCE01DF91CF911F910F91B4
:100A6000FF900C94DA04CF93DF93EC019A01AB0171
:100A70001B8E1A8E198E188E1F8A1E8A60E079E0EE
:100A80008DE390E00E94620AC9012430310520F014
:100A9000B9016350710902C061E070E07D8F6C8F15
:100AA000EC85E63108F068C0B90176956795643148
:100AB000710518F06351710902C061E070E07F8B2D
:100AC0006E8B069718F0C901059702C081E090E08F
:100AD000998F888FC901880F991F820F931F969550
:100AE0008795969587958D30910510F00C9702C0EB
:100AF00081E090E09B8F8A8F20916800E83050F071
:100B000091E0EE3008F490E081E001C0880F9A9502
:100B1000EAF701C084E0822B809368002C8528309E
:100B200038F02E3040F0263148F48CE690E008C0D2
:100B30008DE690E005C08BE690E002C080E090E09A
:100B40009C8B8B8B283030F481E001C0880F2A9574
:100B5000EAF70DC0822F90E02E3010F4089701C004
:100B60000E9791E001C0990F8A95EAF7892F8D8B36
:100B70008C8D9D8D0197F1F7CE01DF91CF910C9473
:100B800007041F920F920FB60F9211242F933F93D9
:100B90008F939F93AF93BF938091E0019091E10178
:100BA000A091E201B091E3013091DF0123E0230F36
:100BB0002D3720F40196A11DB11D05C026E8230F95
:100BC0000296A11DB11D2093DF018093E001909357
:100BD000E101A093E201B093E3018091E4019091DF
:100BE000E501A091E601B091E7010196A11DB11DBB
:100BF0008093E4019093E501A093E601B093E701AF
:100C0000BF91AF919F918F913F912F910F900FBE08
:100C10000F901F9018953FB7F8948091E401909140
:100C2000E501A091E601B091E70126B5A89B05C0BA
:100C30002F3F19F00196A11DB11D3FBF6627782FE8
:100C4000892F9A2F620F711D811D911D42E0660F41
:100C5000771F881F991F4A95D1F70895CF92DF9289
:100C6000EF92FF92CF93DF936B017C010E940B0602
:100C7000EB01C114D104E104F10489F00E941B0AC4
:100C80000E940B066C1B7D0B683E734090F381E065
:100C9000C81AD108E108F108C851DC4FEACFDF914A
:100CA000CF91FF90EF90DF90CF900895789484B526
:100CB000826084BD84B5816084BD85B5826085BD58
:100CC00085B5816085BDEEE6F0E08081816080833E
:100CD000E1E8F0E010828081826080838081816021
:100CE0008083E0E8F0E0808181608083E1EBF0E0E8
:100CF000808184608083E0EBF0E08081816080838C
:100D0000EAE7F0E080818460808380818260808374
:100D10008081816080838081806880831092C1009F
:100D200008958E3008F08E5087702091180190E45D
:100D3000299F90011124822B80937C0080917A005E
:100D4000806480937A0080917A0086FDFCCF809148
:100D500078002091790090E0922B0895833081F003
:100D600028F4813099F08230A1F008958730A9F0FD
:100D70008830B9F08430D1F4809180008F7D03C039
:100D8000809180008F7780938000089584B58F775D
:100D900002C084B58F7D84BD08958091B0008F77A7
:100DA00003C08091B0008F7D8093B0000895CF93F1
:100DB000DF9390E0FC01E458FF4F2491FC01E057E1
:100DC000FF4F8491882349F190E0880F991FFC011F
:100DD000E854FF4FA591B49182559F4FFC01C591F6
:100DE000D4919FB7611108C0F8948C91209582230B
:100DF0008C93888182230AC0623051F4F8948C91DC
:100E0000322F309583238C938881822B888304C072
:100E1000F8948C91822B8C939FBFDF91CF91089592
:100E20000F931F93CF93DF931F92CDB7DEB7282F79
:100E300030E0F901E859FF4F8491F901E458FF4F80
:100E40001491F901E057FF4F04910023C9F0882362
:100E500021F069830E94AE066981E02FF0E0EE0F79
:100E6000FF1FE255FF4FA591B4919FB7F8948C9165
:100E7000611103C01095812301C0812B8C939FBF0A
:100E80000F90DF91CF911F910F910895CF93DF9332
:100E9000282F30E0F901E859FF4F8491F901E45817
:100EA000FF4FD491F901E057FF4FC491CC2391F04B
:100EB00081110E94AE06EC2FF0E0EE0FFF1FEC5503
:100EC000FF4FA591B4912C912D2381E090E021F466
:100ED00080E002C080E090E0DF91CF910895FC01B6
:100EE000818D228D90E0805C9F4F821B91098F73D2
:100EF00099270895FC01918D828D981731F0828D8C
:100F0000E80FF11D858D90E008958FEF9FEF089514
:100F1000FC01918D828D981761F0828DDF01A80F01
:100F2000B11D5D968C91928D9F5F9F73928F90E023
:100F300008958FEF9FEF08958CE099E0892B49F099
:100F400080E090E0892B29F00E940C0981110C941B
:100F500000000895FC01848DDF01A80FB11DA35A84
:100F6000BF4F2C91848D90E001968F739927848FC9
:100F7000A689B7892C93A089B1898C9180648C93C0
:100F8000938D848D981306C00288F389E02D8081AB
:100F90008F7D80830895CF93DF93EC01888D882324
:100FA000C9F0EA89FB89808185FD05C0A889B989D6
:100FB0008C9186FD0FC00FB607FCF5CF808185FFB1
:100FC000F2CFA889B9898C9185FFEDCFCE010E941F
:100FD000AA07E7CFDF91CF910895CF92DF92FF92DA
:100FE0000F931F93CF93DF931F92CDB7DEB76C01A2
:100FF000DC015B969C915B975C968C915C97981357
:1010000007C05096ED91FC915197808185FD32C0CB
:10101000F601038D10E00F5F1F4F0F731127F02EA5
:10102000F601848DF81211C00FB607FCF9CFD60176
:101030005096ED91FC915197808185FFF1CFC601CB
:1010400069830E94AA076981EBCF838DE80FF11DA8
:10105000E35AFF4F6083D6015B960C935B975296E1
:10106000ED91FC91539780818062808381E0589656
:101070008C930DC0D6015696ED91FC9157976083E5
:101080005096ED91FC91519780818064808381E03E
:1010900090E00F90DF91CF911F910F91FF90DF9023
:1010A000CF900895BF92CF92DF92EF92FF92CF93AD
:1010B000DF93EC016A017B01B22EE889F98982E0B5
:1010C0008083411581EE580761057105A1F060E04C
:1010D00079E08DE390E0A70196010E94400A21503B
:1010E000310941095109569547953795279521159D
:1010F00080E1380798F0E889F989108260E874E89F
:101100008EE190E0A70196010E94400A215031092A
:10111000410951095695479537952795EC85FD85E9
:101120003083EE85FF852083188EEC89FD89B0829F
:10113000EA89FB89808180618083EA89FB898081DB
:1011400088608083EA89FB89808180688083EA895E
:10115000FB8980818F7D8083DF91CF91FF90EF901D
:10116000DF90CF90BF9008951F920F920FB60F920D
:1011700011242F938F939F93EF93FF93E091F801A6
:10118000F091F9018081E091FE01F091FF0182FD73
:1011900012C09081809101028F5F8F7320910202B3
:1011A000821751F0E0910102F0E0E851FE4F958F77
:1011B0008093010201C08081FF91EF919F918F91F7
:1011C0002F910F900FBE0F901F9018951F920F92A6
:1011D0000FB60F9211242F933F934F935F936F930A
:1011E0007F938F939F93AF93BF93EF93FF9388EE7B
:1011F00091E00E94AA07FF91EF91BF91AF919F915B
:101200008F917F916F915F914F913F912F910F90AF
:101210000FBE0F901F90189588EE91E00E946F0707
:1012200021E0892B09F420E0822F08951092EB0130
:101230001092EA0188EE93E0A0E0B0E08093EC0128
:101240009093ED01A093EE01B093EF0184E491E05F
:101250009093E9018093E80185EC90E09093F5018B
:101260008093F40184EC90E09093F7018093F60171
:1012700080EC90E09093F9018093F80181EC90E08C
:101280009093FB018093FA0182EC90E09093FD0132
:101290008093FC0186EC90E09093FF018093FE0127
:1012A00010920102109202021092030210920402A4
:1012B000089508950E9456060E9459090E949800B8
:1012C000CCE9D7E00E9434032097E1F30E949C0709
:1012D000F9CFCF92DF92EF92FF920F931F93CF93AC
:1012E000DF936C017A01EB01E60EF71E00E010E0DF
:1012F000CE15DF0561F06991D601ED91FC91019069
:10130000F081E02DC6010995080F191FF1CFC80122
:10131000DF91CF911F910F91FF90EF90DF90CF90D1
:1013200008956115710581F0DB010D900020E9F74A
:10133000AD0141505109461B570BDC01ED91FC9169
:101340000280F381E02D099480E090E00895DC01B3
:10135000ED91FC910190F081E02D09940F931F9382
:10136000CF93DF93EC016DE00E94A7098C016AE046
:10137000CE010E94A709800F911FDF91CF911F918D
:101380000F9108950F931F93CF93DF93EC010E9469
:1013900091098C01CE010E94AE09800F911FDF914F
:1013A000CF911F910F9108954F925F926F927F920C
:1013B000AF92BF92CF92DF92EF92FF920F931F9363
:1013C000CF93DF93CDB7DEB729013A01621B730BD0
:1013D000840B950B29893A894B895C892A193B0929
:1013E0004C095D09298B3A8B4B8B5C8B9B01AC01C3
:1013F00069897A898B899C890E941C0AE418F508FE
:1014000006091709A80197010E94620A2A0D3B1DCF
:101410004C1D5D1DCA01B901DF91CF911F910F9144
:10142000FF90EF90DF90CF90BF90AF907F906F9044
:101430005F904F9008950895DB018F939F930E94D2
:10144000810ABF91AF91A29F800D911DA39F900D26
:10145000B29F900D1124089597FB072E16F4009467
:1014600007D077FD09D00E948C0A07FC05D03EF416
:10147000909581959F4F0895709561957F4F089540
:10148000A1E21A2EAA1BBB1BFD010DC0AA1FBB1F88
:10149000EE1FFF1FA217B307E407F50720F0A21BFA
:1014A000B30BE40BF50B661F771F881F991F1A9467
:1014B00069F760957095809590959B01AC01BD0191
:1014C000CF010895052E97FB1EF400940E94790A1F
:1014D00057FD07D00E94400A07FC03D04EF40C943D
:1014E000790A50954095309521953F4F4F4F5F4F6A
:1014F000089590958095709561957F4F8F4F9F4F80
:1015000008950E94A60AA59F900DB49F900DA49FD8
:10151000800D911D11240895AA1BBB1B51E107C02A
:10152000AA1FBB1FA617B70710F0A61BB70B881F73
:10153000991F5A95A9F780959095BC01CD01089502
:10154000EE0FFF1F0590F491E02D0994A29FB001CA
:10155000B39FC001A39F700D811D1124911DB29FE7
:10156000700D811D1124911D0895FB01DC010D906A
:101570000020E9F7119701900D920020E1F70895FE
:10158000FB01DC0101900D920020E1F70895BB27DB
:101590004A3031F4992322F4BDE2909581959F4F12
:1015A0000C94D30ABB27FB015527AA27880F991F44
:1015B000AA1FA41710F0A41B83955051B9F7A05D82
:1015C000AA3308F0A95DA193009779F7B111B193FF
:1015D0001192CB010C94EC0ADC01FC01672F719194
:1015E0007723E1F7329704C07C916D937083629109
:1015F000AE17BF07C8F3089510E0C6ECD0E004C0F2
:10160000FE010E94A20A2296C83CD107C9F7F894AD
:02161000FFCF0A
:1016120001000000C8005A005A0009000800060034
:10162200070010000F000E0001413030004431303D
:101632000059005000540052310052320052300022
:10164200000000006C036909D9034B03BF03BE030A
:1016520000000000ED0769096F0788077A07CB07CA
:00000001FF
